{
  "contractName": "AKAP",
  "abi": [
    {
      "constant": true,
      "inputs": [
        {
          "name": "interfaceId",
          "type": "bytes4"
        }
      ],
      "name": "supportsInterface",
      "outputs": [
        {
          "name": "",
          "type": "bool"
        }
      ],
      "payable": false,
      "stateMutability": "view",
      "type": "function"
    },
    {
      "constant": true,
      "inputs": [],
      "name": "name",
      "outputs": [
        {
          "name": "",
          "type": "string"
        }
      ],
      "payable": false,
      "stateMutability": "view",
      "type": "function"
    },
    {
      "constant": true,
      "inputs": [
        {
          "name": "tokenId",
          "type": "uint256"
        }
      ],
      "name": "getApproved",
      "outputs": [
        {
          "name": "",
          "type": "address"
        }
      ],
      "payable": false,
      "stateMutability": "view",
      "type": "function"
    },
    {
      "constant": false,
      "inputs": [
        {
          "name": "to",
          "type": "address"
        },
        {
          "name": "tokenId",
          "type": "uint256"
        }
      ],
      "name": "approve",
      "outputs": [],
      "payable": false,
      "stateMutability": "nonpayable",
      "type": "function"
    },
    {
      "constant": true,
      "inputs": [],
      "name": "totalSupply",
      "outputs": [
        {
          "name": "",
          "type": "uint256"
        }
      ],
      "payable": false,
      "stateMutability": "view",
      "type": "function"
    },
    {
      "constant": true,
      "inputs": [
        {
          "name": "",
          "type": "uint256"
        }
      ],
      "name": "nodes",
      "outputs": [
        {
          "name": "parentId",
          "type": "uint256"
        },
        {
          "name": "expiry",
          "type": "uint256"
        },
        {
          "name": "seeAlso",
          "type": "uint256"
        },
        {
          "name": "seeAddress",
          "type": "address"
        },
        {
          "name": "nodeBody",
          "type": "bytes"
        }
      ],
      "payable": false,
      "stateMutability": "view",
      "type": "function"
    },
    {
      "constant": false,
      "inputs": [
        {
          "name": "from",
          "type": "address"
        },
        {
          "name": "to",
          "type": "address"
        },
        {
          "name": "tokenId",
          "type": "uint256"
        }
      ],
      "name": "transferFrom",
      "outputs": [],
      "payable": false,
      "stateMutability": "nonpayable",
      "type": "function"
    },
    {
      "constant": true,
      "inputs": [
        {
          "name": "owner",
          "type": "address"
        },
        {
          "name": "index",
          "type": "uint256"
        }
      ],
      "name": "tokenOfOwnerByIndex",
      "outputs": [
        {
          "name": "",
          "type": "uint256"
        }
      ],
      "payable": false,
      "stateMutability": "view",
      "type": "function"
    },
    {
      "constant": false,
      "inputs": [
        {
          "name": "from",
          "type": "address"
        },
        {
          "name": "to",
          "type": "address"
        },
        {
          "name": "tokenId",
          "type": "uint256"
        }
      ],
      "name": "safeTransferFrom",
      "outputs": [],
      "payable": false,
      "stateMutability": "nonpayable",
      "type": "function"
    },
    {
      "constant": true,
      "inputs": [
        {
          "name": "index",
          "type": "uint256"
        }
      ],
      "name": "tokenByIndex",
      "outputs": [
        {
          "name": "",
          "type": "uint256"
        }
      ],
      "payable": false,
      "stateMutability": "view",
      "type": "function"
    },
    {
      "constant": true,
      "inputs": [
        {
          "name": "tokenId",
          "type": "uint256"
        }
      ],
      "name": "ownerOf",
      "outputs": [
        {
          "name": "",
          "type": "address"
        }
      ],
      "payable": false,
      "stateMutability": "view",
      "type": "function"
    },
    {
      "constant": true,
      "inputs": [
        {
          "name": "owner",
          "type": "address"
        }
      ],
      "name": "balanceOf",
      "outputs": [
        {
          "name": "",
          "type": "uint256"
        }
      ],
      "payable": false,
      "stateMutability": "view",
      "type": "function"
    },
    {
      "constant": true,
      "inputs": [],
      "name": "symbol",
      "outputs": [
        {
          "name": "",
          "type": "string"
        }
      ],
      "payable": false,
      "stateMutability": "view",
      "type": "function"
    },
    {
      "constant": false,
      "inputs": [
        {
          "name": "to",
          "type": "address"
        },
        {
          "name": "approved",
          "type": "bool"
        }
      ],
      "name": "setApprovalForAll",
      "outputs": [],
      "payable": false,
      "stateMutability": "nonpayable",
      "type": "function"
    },
    {
      "constant": false,
      "inputs": [
        {
          "name": "from",
          "type": "address"
        },
        {
          "name": "to",
          "type": "address"
        },
        {
          "name": "tokenId",
          "type": "uint256"
        },
        {
          "name": "_data",
          "type": "bytes"
        }
      ],
      "name": "safeTransferFrom",
      "outputs": [],
      "payable": false,
      "stateMutability": "nonpayable",
      "type": "function"
    },
    {
      "constant": true,
      "inputs": [
        {
          "name": "tokenId",
          "type": "uint256"
        }
      ],
      "name": "tokenURI",
      "outputs": [
        {
          "name": "",
          "type": "string"
        }
      ],
      "payable": false,
      "stateMutability": "view",
      "type": "function"
    },
    {
      "constant": true,
      "inputs": [
        {
          "name": "owner",
          "type": "address"
        },
        {
          "name": "operator",
          "type": "address"
        }
      ],
      "name": "isApprovedForAll",
      "outputs": [
        {
          "name": "",
          "type": "bool"
        }
      ],
      "payable": false,
      "stateMutability": "view",
      "type": "function"
    },
    {
      "inputs": [],
      "payable": false,
      "stateMutability": "nonpayable",
      "type": "constructor"
    },
    {
      "anonymous": false,
      "inputs": [
        {
          "indexed": true,
          "name": "sender",
          "type": "address"
        },
        {
          "indexed": true,
          "name": "nodeId",
          "type": "uint256"
        },
        {
          "indexed": true,
          "name": "parentId",
          "type": "uint256"
        },
        {
          "indexed": false,
          "name": "label",
          "type": "bytes"
        },
        {
          "indexed": false,
          "name": "claimCase",
          "type": "uint8"
        }
      ],
      "name": "Claim",
      "type": "event"
    },
    {
      "anonymous": false,
      "inputs": [
        {
          "indexed": true,
          "name": "sender",
          "type": "address"
        },
        {
          "indexed": true,
          "name": "nodeId",
          "type": "uint256"
        },
        {
          "indexed": false,
          "name": "attribute",
          "type": "uint8"
        }
      ],
      "name": "AttributeChanged",
      "type": "event"
    },
    {
      "anonymous": false,
      "inputs": [
        {
          "indexed": true,
          "name": "from",
          "type": "address"
        },
        {
          "indexed": true,
          "name": "to",
          "type": "address"
        },
        {
          "indexed": true,
          "name": "tokenId",
          "type": "uint256"
        }
      ],
      "name": "Transfer",
      "type": "event"
    },
    {
      "anonymous": false,
      "inputs": [
        {
          "indexed": true,
          "name": "owner",
          "type": "address"
        },
        {
          "indexed": true,
          "name": "approved",
          "type": "address"
        },
        {
          "indexed": true,
          "name": "tokenId",
          "type": "uint256"
        }
      ],
      "name": "Approval",
      "type": "event"
    },
    {
      "anonymous": false,
      "inputs": [
        {
          "indexed": true,
          "name": "owner",
          "type": "address"
        },
        {
          "indexed": true,
          "name": "operator",
          "type": "address"
        },
        {
          "indexed": false,
          "name": "approved",
          "type": "bool"
        }
      ],
      "name": "ApprovalForAll",
      "type": "event"
    },
    {
      "constant": true,
      "inputs": [
        {
          "name": "parentId",
          "type": "uint256"
        },
        {
          "name": "label",
          "type": "bytes"
        }
      ],
      "name": "hashOf",
      "outputs": [
        {
          "name": "id",
          "type": "uint256"
        }
      ],
      "payable": false,
      "stateMutability": "pure",
      "type": "function"
    },
    {
      "constant": false,
      "inputs": [
        {
          "name": "parentId",
          "type": "uint256"
        },
        {
          "name": "label",
          "type": "bytes"
        }
      ],
      "name": "claim",
      "outputs": [
        {
          "name": "status",
          "type": "uint256"
        }
      ],
      "payable": false,
      "stateMutability": "nonpayable",
      "type": "function"
    },
    {
      "constant": true,
      "inputs": [
        {
          "name": "nodeId",
          "type": "uint256"
        }
      ],
      "name": "parentOf",
      "outputs": [
        {
          "name": "",
          "type": "uint256"
        }
      ],
      "payable": false,
      "stateMutability": "view",
      "type": "function"
    },
    {
      "constant": true,
      "inputs": [
        {
          "name": "nodeId",
          "type": "uint256"
        }
      ],
      "name": "expiryOf",
      "outputs": [
        {
          "name": "",
          "type": "uint256"
        }
      ],
      "payable": false,
      "stateMutability": "view",
      "type": "function"
    },
    {
      "constant": true,
      "inputs": [
        {
          "name": "nodeId",
          "type": "uint256"
        }
      ],
      "name": "seeAlso",
      "outputs": [
        {
          "name": "",
          "type": "uint256"
        }
      ],
      "payable": false,
      "stateMutability": "view",
      "type": "function"
    },
    {
      "constant": true,
      "inputs": [
        {
          "name": "nodeId",
          "type": "uint256"
        }
      ],
      "name": "seeAddress",
      "outputs": [
        {
          "name": "",
          "type": "address"
        }
      ],
      "payable": false,
      "stateMutability": "view",
      "type": "function"
    },
    {
      "constant": true,
      "inputs": [
        {
          "name": "nodeId",
          "type": "uint256"
        }
      ],
      "name": "nodeBody",
      "outputs": [
        {
          "name": "",
          "type": "bytes"
        }
      ],
      "payable": false,
      "stateMutability": "view",
      "type": "function"
    },
    {
      "constant": false,
      "inputs": [
        {
          "name": "nodeId",
          "type": "uint256"
        }
      ],
      "name": "expireNode",
      "outputs": [],
      "payable": false,
      "stateMutability": "nonpayable",
      "type": "function"
    },
    {
      "constant": false,
      "inputs": [
        {
          "name": "nodeId",
          "type": "uint256"
        },
        {
          "name": "value",
          "type": "uint256"
        }
      ],
      "name": "setSeeAlso",
      "outputs": [],
      "payable": false,
      "stateMutability": "nonpayable",
      "type": "function"
    },
    {
      "constant": false,
      "inputs": [
        {
          "name": "nodeId",
          "type": "uint256"
        },
        {
          "name": "value",
          "type": "address"
        }
      ],
      "name": "setSeeAddress",
      "outputs": [],
      "payable": false,
      "stateMutability": "nonpayable",
      "type": "function"
    },
    {
      "constant": false,
      "inputs": [
        {
          "name": "nodeId",
          "type": "uint256"
        },
        {
          "name": "value",
          "type": "bytes"
        }
      ],
      "name": "setNodeBody",
      "outputs": [],
      "payable": false,
      "stateMutability": "nonpayable",
      "type": "function"
    },
    {
      "constant": false,
      "inputs": [
        {
          "name": "nodeId",
          "type": "uint256"
        },
        {
          "name": "uri",
          "type": "string"
        }
      ],
      "name": "setTokenURI",
      "outputs": [],
      "payable": false,
      "stateMutability": "nonpayable",
      "type": "function"
    }
  ],
  "bytecode": "0x60806040523480156200001157600080fd5b506040518060400160405280601581526020017f414b412050726f746f636f6c20526567697374727900000000000000000000008152506040518060400160405280600481526020017f414b4150000000000000000000000000000000000000000000000000000000008152508181620000986301ffc9a760e01b6200011c60201b60201c565b620000b06380ac58cd60e01b6200011c60201b60201c565b620000c863780e9d6360e01b6200011c60201b60201c565b8160099080519060200190620000e092919062000225565b5080600a9080519060200190620000f992919062000225565b5062000112635b5e139f60e01b6200011c60201b60201c565b50505050620002d4565b63ffffffff60e01b817bffffffffffffffffffffffffffffffffffffffffffffffffffffffff19161415620001b9576040517f08c379a000000000000000000000000000000000000000000000000000000000815260040180806020018281038252601c8152602001807f4552433136353a20696e76616c696420696e746572666163652069640000000081525060200191505060405180910390fd5b6001600080837bffffffffffffffffffffffffffffffffffffffffffffffffffffffff19167bffffffffffffffffffffffffffffffffffffffffffffffffffffffff1916815260200190815260200160002060006101000a81548160ff02191690831515021790555050565b828054600181600116156101000203166002900490600052602060002090601f016020900481019282601f106200026857805160ff191683800117855562000299565b8280016001018555821562000299579182015b82811115620002985782518255916020019190600101906200027b565b5b509050620002a89190620002ac565b5090565b620002d191905b80821115620002cd576000816000905550600101620002b3565b5090565b90565b613a2c80620002e46000396000f3fe608060405234801561001057600080fd5b50600436106101cf5760003560e01c80634f6ccce711610104578063b0690124116100a2578063c87b56dd11610071578063c87b56dd14610c8d578063cfa3c13214610d34578063e741cc4e14610d76578063e985e9c514610e4f576101cf565b8063b069012414610a55578063b88d4fde14610ad8578063b8af764214610bdd578063baef73e914610c4b576101cf565b80637352f2b4116100de5780637352f2b4146109085780638b73061f1461094a57806395d89b4114610982578063a22cb46514610a05576101cf565b80634f6ccce7146108005780636352211e1461084257806370a08231146108b0576101cf565b80631c53c28011610171578063380a284c1161014b578063380a284c1461060657806338926b6d146106ad5780633a76c3021461074457806342842e0e14610792576101cf565b80631c53c2801461044757806323b872dd146105365780632f745c59146105a4576101cf565b8063095ea7b3116101ad578063095ea7b31461032a5780630d340c4a14610378578063162094c4146103a657806318160ddd14610429576101cf565b806301ffc9a7146101d457806306fdde0314610239578063081812fc146102bc575b600080fd5b61021f600480360360208110156101ea57600080fd5b8101908080357bffffffffffffffffffffffffffffffffffffffffffffffffffffffff19169060200190929190505050610ecb565b604051808215151515815260200191505060405180910390f35b610241610f32565b6040518080602001828103825283818151815260200191508051906020019080838360005b83811015610281578082015181840152602081019050610266565b50505050905090810190601f1680156102ae5780820380516001836020036101000a031916815260200191505b509250505060405180910390f35b6102e8600480360360208110156102d257600080fd5b8101908080359060200190929190505050610fd4565b604051808273ffffffffffffffffffffffffffffffffffffffff1673ffffffffffffffffffffffffffffffffffffffff16815260200191505060405180910390f35b6103766004803603604081101561034057600080fd5b81019080803573ffffffffffffffffffffffffffffffffffffffff1690602001909291908035906020019092919050505061106f565b005b6103a46004803603602081101561038e57600080fd5b8101908080359060200190929190505050611256565b005b610427600480360360408110156103bc57600080fd5b8101908080359060200190929190803590602001906401000000008111156103e357600080fd5b8201836020820111156103f557600080fd5b8035906020019184600183028401116401000000008311171561041757600080fd5b9091929391929390505050611352565b005b610431611483565b6040518082815260200191505060405180910390f35b6104736004803603602081101561045d57600080fd5b8101908080359060200190929190505050611490565b604051808681526020018581526020018481526020018373ffffffffffffffffffffffffffffffffffffffff1673ffffffffffffffffffffffffffffffffffffffff16815260200180602001828103825283818151815260200191508051906020019080838360005b838110156104f75780820151818401526020810190506104dc565b50505050905090810190601f1680156105245780820380516001836020036101000a031916815260200191505b50965050505050505060405180910390f35b6105a26004803603606081101561054c57600080fd5b81019080803573ffffffffffffffffffffffffffffffffffffffff169060200190929190803573ffffffffffffffffffffffffffffffffffffffff1690602001909291908035906020019092919050505061157e565b005b6105f0600480360360408110156105ba57600080fd5b81019080803573ffffffffffffffffffffffffffffffffffffffff169060200190929190803590602001909291905050506115f4565b6040518082815260200191505060405180910390f35b6106326004803603602081101561061c57600080fd5b81019080803590602001909291905050506116b3565b6040518080602001828103825283818151815260200191508051906020019080838360005b83811015610672578082015181840152602081019050610657565b50505050905090810190601f16801561069f5780820380516001836020036101000a031916815260200191505b509250505060405180910390f35b61072e600480360360408110156106c357600080fd5b8101908080359060200190929190803590602001906401000000008111156106ea57600080fd5b8201836020820111156106fc57600080fd5b8035906020019184600183028401116401000000008311171561071e57600080fd5b90919293919293905050506117cb565b6040518082815260200191505060405180910390f35b6107906004803603604081101561075a57600080fd5b8101908080359060200190929190803573ffffffffffffffffffffffffffffffffffffffff169060200190929190505050611b54565b005b6107fe600480360360608110156107a857600080fd5b81019080803573ffffffffffffffffffffffffffffffffffffffff169060200190929190803573ffffffffffffffffffffffffffffffffffffffff16906020019092919080359060200190929190505050611c8b565b005b61082c6004803603602081101561081657600080fd5b8101908080359060200190929190505050611cab565b6040518082815260200191505060405180910390f35b61086e6004803603602081101561085857600080fd5b8101908080359060200190929190505050611d2b565b604051808273ffffffffffffffffffffffffffffffffffffffff1673ffffffffffffffffffffffffffffffffffffffff16815260200191505060405180910390f35b6108f2600480360360208110156108c657600080fd5b81019080803573ffffffffffffffffffffffffffffffffffffffff169060200190929190505050611df3565b6040518082815260200191505060405180910390f35b6109346004803603602081101561091e57600080fd5b8101908080359060200190929190505050611ec8565b6040518082815260200191505060405180910390f35b6109806004803603604081101561096057600080fd5b810190808035906020019092919080359060200190929190505050611f48565b005b61098a612045565b6040518080602001828103825283818151815260200191508051906020019080838360005b838110156109ca5780820151818401526020810190506109af565b50505050905090810190601f1680156109f75780820380516001836020036101000a031916815260200191505b509250505060405180910390f35b610a5360048036036040811015610a1b57600080fd5b81019080803573ffffffffffffffffffffffffffffffffffffffff1690602001909291908035151590602001909291905050506120e7565b005b610ad660048036036040811015610a6b57600080fd5b810190808035906020019092919080359060200190640100000000811115610a9257600080fd5b820183602082011115610aa457600080fd5b80359060200191846001830284011164010000000083111715610ac657600080fd5b909192939192939050505061229f565b005b610bdb60048036036080811015610aee57600080fd5b81019080803573ffffffffffffffffffffffffffffffffffffffff169060200190929190803573ffffffffffffffffffffffffffffffffffffffff1690602001909291908035906020019092919080359060200190640100000000811115610b5557600080fd5b820183602082011115610b6757600080fd5b80359060200191846001830284011164010000000083111715610b8957600080fd5b91908080601f016020809104026020016040519081016040528093929190818152602001838380828437600081840152601f19601f8201169050808301925050505050505091929192905050506123a8565b005b610c0960048036036020811015610bf357600080fd5b8101908080359060200190929190505050612420565b604051808273ffffffffffffffffffffffffffffffffffffffff1673ffffffffffffffffffffffffffffffffffffffff16815260200191505060405180910390f35b610c7760048036036020811015610c6157600080fd5b81019080803590602001909291905050506124c0565b6040518082815260200191505060405180910390f35b610cb960048036036020811015610ca357600080fd5b8101908080359060200190929190505050612540565b6040518080602001828103825283818151815260200191508051906020019080838360005b83811015610cf9578082015181840152602081019050610cde565b50505050905090810190601f168015610d265780820380516001836020036101000a031916815260200191505b509250505060405180910390f35b610d6060048036036020811015610d4a57600080fd5b8101908080359060200190929190505050612653565b6040518082815260200191505060405180910390f35b610e3960048036036040811015610d8c57600080fd5b810190808035906020019092919080359060200190640100000000811115610db357600080fd5b820183602082011115610dc557600080fd5b80359060200191846001830284011164010000000083111715610de757600080fd5b91908080601f016020809104026020016040519081016040528093929190818152602001838380828437600081840152601f19601f8201169050808301925050505050505091929192905050506126d3565b6040518082815260200191505060405180910390f35b610eb160048036036040811015610e6557600080fd5b81019080803573ffffffffffffffffffffffffffffffffffffffff169060200190929190803573ffffffffffffffffffffffffffffffffffffffff16906020019092919050505061273f565b604051808215151515815260200191505060405180910390f35b6000806000837bffffffffffffffffffffffffffffffffffffffffffffffffffffffff19167bffffffffffffffffffffffffffffffffffffffffffffffffffffffff1916815260200190815260200160002060009054906101000a900460ff169050919050565b606060098054600181600116156101000203166002900480601f016020809104026020016040519081016040528092919081815260200182805460018160011615610100020316600290048015610fca5780601f10610f9f57610100808354040283529160200191610fca565b820191906000526020600020905b815481529060010190602001808311610fad57829003601f168201915b5050505050905090565b6000610fdf826127d3565b611034576040517f08c379a000000000000000000000000000000000000000000000000000000000815260040180806020018281038252602c8152602001806138aa602c913960400191505060405180910390fd5b6002600083815260200190815260200160002060009054906101000a900473ffffffffffffffffffffffffffffffffffffffff169050919050565b600061107a82611d2b565b90508073ffffffffffffffffffffffffffffffffffffffff168373ffffffffffffffffffffffffffffffffffffffff161415611101576040517f08c379a00000000000000000000000000000000000000000000000000000000081526004018080602001828103825260218152602001806139836021913960400191505060405180910390fd5b8073ffffffffffffffffffffffffffffffffffffffff16611120612845565b73ffffffffffffffffffffffffffffffffffffffff16148061114f575061114e81611149612845565b61273f565b5b6111a4576040517f08c379a000000000000000000000000000000000000000000000000000000000815260040180806020018281038252603881526020018061381f6038913960400191505060405180910390fd5b826002600084815260200190815260200160002060006101000a81548173ffffffffffffffffffffffffffffffffffffffff021916908373ffffffffffffffffffffffffffffffffffffffff160217905550818373ffffffffffffffffffffffffffffffffffffffff168273ffffffffffffffffffffffffffffffffffffffff167f8c5be1e5ebec7d5bd14f71427d1e84f3dd0314c0f7b2291e5b200ac8c7c3b92560405160405180910390a4505050565b80611260816127d3565b80156112795750611278611272612845565b8261284d565b5b6112ce576040517f08c379a000000000000000000000000000000000000000000000000000000000815260040180806020018281038252603081526020018061379f6030913960400191505060405180910390fd5b42600c600084815260200190815260200160002060010181905550816112f2612845565b73ffffffffffffffffffffffffffffffffffffffff167f4e643f23cbc202af4f83dce574290af81b7d940546736d83eec38524c05908f860006040518082600481111561133b57fe5b60ff16815260200191505060405180910390a35050565b8261135c816127d3565b8015611375575061137461136e612845565b8261284d565b5b6113ca576040517f08c379a000000000000000000000000000000000000000000000000000000000815260040180806020018281038252603081526020018061379f6030913960400191505060405180910390fd5b6114188484848080601f016020809104026020016040519081016040528093929190818152602001838380828437600081840152601f19601f82011690508083019250505050505050612941565b83611421612845565b73ffffffffffffffffffffffffffffffffffffffff167f4e643f23cbc202af4f83dce574290af81b7d940546736d83eec38524c05908f860046040518082600481111561146a57fe5b60ff16815260200191505060405180910390a350505050565b6000600780549050905090565b600c6020528060005260406000206000915090508060000154908060010154908060020154908060030160009054906101000a900473ffffffffffffffffffffffffffffffffffffffff1690806004018054600181600116156101000203166002900480601f0160208091040260200160405190810160405280929190818152602001828054600181600116156101000203166002900480156115745780601f1061154957610100808354040283529160200191611574565b820191906000526020600020905b81548152906001019060200180831161155757829003601f168201915b5050505050905085565b61158f611589612845565b8261284d565b6115e4576040517f08c379a00000000000000000000000000000000000000000000000000000000081526004018080602001828103825260318152602001806139a46031913960400191505060405180910390fd5b6115ef8383836129cb565b505050565b60006115ff83611df3565b8210611656576040517f08c379a000000000000000000000000000000000000000000000000000000000815260040180806020018281038252602b815260200180613742602b913960400191505060405180910390fd5b600560008473ffffffffffffffffffffffffffffffffffffffff1673ffffffffffffffffffffffffffffffffffffffff16815260200190815260200160002082815481106116a057fe5b9060005260206000200154905092915050565b6060816116bf816127d3565b611714576040517f08c379a000000000000000000000000000000000000000000000000000000000815260040180806020018281038252602981526020018061395a6029913960400191505060405180910390fd5b600c60008481526020019081526020016000206004018054600181600116156101000203166002900480601f0160208091040260200160405190810160405280929190818152602001828054600181600116156101000203166002900480156117be5780601f10611793576101008083540402835291602001916117be565b820191906000526020600020905b8154815290600101906020018083116117a157829003601f168201915b5050505050915050919050565b60008061181c8585858080601f016020809104026020016040519081016040528093929190818152602001838380828437600081840152601f19601f820116905080830192505050505050506126d3565b905060008086148061183b575061183a611834612845565b8761284d565b5b90506000611848836127d3565b9050808015611864575061186361185d612845565b8461284d565b5b15611930576301dfe2004201600c6000858152602001908152602001600020600101819055508683611894612845565b73ffffffffffffffffffffffffffffffffffffffff167f2574d3b5e98dcd17b129343ee43bda3629741c9f23256766c603c18f2c1f014e8989600060405180806020018360028111156118e357fe5b60ff1681526020018281038252858582818152602001925080828437600081840152601f19601f82011690508083019250505094505050505060405180910390a460019350505050611b4d565b8015801561193b5750815b15611a335761195161194b612845565b846129ef565b86600c6000858152602001908152602001600020600001819055506301dfe2004201600c6000858152602001908152602001600020600101819055508683611997612845565b73ffffffffffffffffffffffffffffffffffffffff167f2574d3b5e98dcd17b129343ee43bda3629741c9f23256766c603c18f2c1f014e8989600160405180806020018360028111156119e657fe5b60ff1681526020018281038252858582818152602001925080828437600081840152601f19601f82011690508083019250505094505050505060405180910390a460029350505050611b4d565b808015611a56575042600c60008581526020019081526020016000206001015411155b8015611a5f5750815b15611b4557611a7e611a7084611d2b565b611a78612845565b856129cb565b6301dfe2004201600c6000858152602001908152602001600020600101819055508683611aa9612845565b73ffffffffffffffffffffffffffffffffffffffff167f2574d3b5e98dcd17b129343ee43bda3629741c9f23256766c603c18f2c1f014e898960026040518080602001836002811115611af857fe5b60ff1681526020018281038252858582818152602001925080828437600081840152601f19601f82011690508083019250505094505050505060405180910390a460039350505050611b4d565b600093505050505b9392505050565b81611b5e816127d3565b8015611b775750611b76611b70612845565b8261284d565b5b611bcc576040517f08c379a000000000000000000000000000000000000000000000000000000000815260040180806020018281038252603081526020018061379f6030913960400191505060405180910390fd5b81600c600085815260200190815260200160002060030160006101000a81548173ffffffffffffffffffffffffffffffffffffffff021916908373ffffffffffffffffffffffffffffffffffffffff16021790555082611c2a612845565b73ffffffffffffffffffffffffffffffffffffffff167f4e643f23cbc202af4f83dce574290af81b7d940546736d83eec38524c05908f8600260405180826004811115611c7357fe5b60ff16815260200191505060405180910390a3505050565b611ca6838383604051806020016040528060008152506123a8565b505050565b6000611cb5611483565b8210611d0c576040517f08c379a000000000000000000000000000000000000000000000000000000000815260040180806020018281038252602c8152602001806139d5602c913960400191505060405180910390fd5b60078281548110611d1957fe5b90600052602060002001549050919050565b6000806001600084815260200190815260200160002060009054906101000a900473ffffffffffffffffffffffffffffffffffffffff169050600073ffffffffffffffffffffffffffffffffffffffff168173ffffffffffffffffffffffffffffffffffffffff161415611dea576040517f08c379a00000000000000000000000000000000000000000000000000000000081526004018080602001828103825260298152602001806138816029913960400191505060405180910390fd5b80915050919050565b60008073ffffffffffffffffffffffffffffffffffffffff168273ffffffffffffffffffffffffffffffffffffffff161415611e7a576040517f08c379a000000000000000000000000000000000000000000000000000000000815260040180806020018281038252602a815260200180613857602a913960400191505060405180910390fd5b611ec1600360008473ffffffffffffffffffffffffffffffffffffffff1673ffffffffffffffffffffffffffffffffffffffff168152602001908152602001600020612a10565b9050919050565b600081611ed4816127d3565b611f29576040517f08c379a000000000000000000000000000000000000000000000000000000000815260040180806020018281038252602981526020018061395a6029913960400191505060405180910390fd5b600c600084815260200190815260200160002060020154915050919050565b81611f52816127d3565b8015611f6b5750611f6a611f64612845565b8261284d565b5b611fc0576040517f08c379a000000000000000000000000000000000000000000000000000000000815260040180806020018281038252603081526020018061379f6030913960400191505060405180910390fd5b81600c60008581526020019081526020016000206002018190555082611fe4612845565b73ffffffffffffffffffffffffffffffffffffffff167f4e643f23cbc202af4f83dce574290af81b7d940546736d83eec38524c05908f860016040518082600481111561202d57fe5b60ff16815260200191505060405180910390a3505050565b6060600a8054600181600116156101000203166002900480601f0160208091040260200160405190810160405280929190818152602001828054600181600116156101000203166002900480156120dd5780601f106120b2576101008083540402835291602001916120dd565b820191906000526020600020905b8154815290600101906020018083116120c057829003601f168201915b5050505050905090565b6120ef612845565b73ffffffffffffffffffffffffffffffffffffffff168273ffffffffffffffffffffffffffffffffffffffff161415612190576040517f08c379a00000000000000000000000000000000000000000000000000000000081526004018080602001828103825260198152602001807f4552433732313a20617070726f766520746f2063616c6c65720000000000000081525060200191505060405180910390fd5b806004600061219d612845565b73ffffffffffffffffffffffffffffffffffffffff1673ffffffffffffffffffffffffffffffffffffffff16815260200190815260200160002060008473ffffffffffffffffffffffffffffffffffffffff1673ffffffffffffffffffffffffffffffffffffffff16815260200190815260200160002060006101000a81548160ff0219169083151502179055508173ffffffffffffffffffffffffffffffffffffffff1661224a612845565b73ffffffffffffffffffffffffffffffffffffffff167f17307eab39ab6107e8899845ad3d59bd9653f200f220920489ca2b5937696c3183604051808215151515815260200191505060405180910390a35050565b826122a9816127d3565b80156122c257506122c16122bb612845565b8261284d565b5b612317576040517f08c379a000000000000000000000000000000000000000000000000000000000815260040180806020018281038252603081526020018061379f6030913960400191505060405180910390fd5b8282600c6000878152602001908152602001600020600401919061233c9291906135f0565b5083612346612845565b73ffffffffffffffffffffffffffffffffffffffff167f4e643f23cbc202af4f83dce574290af81b7d940546736d83eec38524c05908f860036040518082600481111561238f57fe5b60ff16815260200191505060405180910390a350505050565b6123b96123b3612845565b8361284d565b61240e576040517f08c379a00000000000000000000000000000000000000000000000000000000081526004018080602001828103825260318152602001806139a46031913960400191505060405180910390fd5b61241a84848484612a1e565b50505050565b60008161242c816127d3565b612481576040517f08c379a000000000000000000000000000000000000000000000000000000000815260040180806020018281038252602981526020018061395a6029913960400191505060405180910390fd5b600c600084815260200190815260200160002060030160009054906101000a900473ffffffffffffffffffffffffffffffffffffffff16915050919050565b6000816124cc816127d3565b612521576040517f08c379a000000000000000000000000000000000000000000000000000000000815260040180806020018281038252602981526020018061395a6029913960400191505060405180910390fd5b600c600084815260200190815260200160002060010154915050919050565b606061254b826127d3565b6125a0576040517f08c379a000000000000000000000000000000000000000000000000000000000815260040180806020018281038252602f81526020018061392b602f913960400191505060405180910390fd5b600b60008381526020019081526020016000208054600181600116156101000203166002900480601f0160208091040260200160405190810160405280929190818152602001828054600181600116156101000203166002900480156126475780601f1061261c57610100808354040283529160200191612647565b820191906000526020600020905b81548152906001019060200180831161262a57829003601f168201915b50505050509050919050565b60008161265f816127d3565b6126b4576040517f08c379a000000000000000000000000000000000000000000000000000000000815260040180806020018281038252602981526020018061395a6029913960400191505060405180910390fd5b600c600084815260200190815260200160002060000154915050919050565b600060018251101580156126e957506020825111155b6126f257600080fd5b6000828051906020012090506000848260405160200180838152602001828152602001925050506040516020818303038152906040528051906020012090508060001c9250505092915050565b6000600460008473ffffffffffffffffffffffffffffffffffffffff1673ffffffffffffffffffffffffffffffffffffffff16815260200190815260200160002060008373ffffffffffffffffffffffffffffffffffffffff1673ffffffffffffffffffffffffffffffffffffffff16815260200190815260200160002060009054906101000a900460ff16905092915050565b6000806001600084815260200190815260200160002060009054906101000a900473ffffffffffffffffffffffffffffffffffffffff169050600073ffffffffffffffffffffffffffffffffffffffff168173ffffffffffffffffffffffffffffffffffffffff161415915050919050565b600033905090565b6000612858826127d3565b6128ad576040517f08c379a000000000000000000000000000000000000000000000000000000000815260040180806020018281038252602c8152602001806137f3602c913960400191505060405180910390fd5b60006128b883611d2b565b90508073ffffffffffffffffffffffffffffffffffffffff168473ffffffffffffffffffffffffffffffffffffffff16148061292757508373ffffffffffffffffffffffffffffffffffffffff1661290f84610fd4565b73ffffffffffffffffffffffffffffffffffffffff16145b806129385750612937818561273f565b5b91505092915050565b61294a826127d3565b61299f576040517f08c379a000000000000000000000000000000000000000000000000000000000815260040180806020018281038252602c8152602001806138d6602c913960400191505060405180910390fd5b80600b600084815260200190815260200160002090805190602001906129c6929190613670565b505050565b6129d6838383612a90565b6129e08382612ceb565b6129ea8282612e89565b505050565b6129f98282612f50565b612a038282612e89565b612a0c81613168565b5050565b600081600001549050919050565b612a298484846129cb565b612a35848484846131b4565b612a8a576040517f08c379a000000000000000000000000000000000000000000000000000000000815260040180806020018281038252603281526020018061376d6032913960400191505060405180910390fd5b50505050565b8273ffffffffffffffffffffffffffffffffffffffff16612ab082611d2b565b73ffffffffffffffffffffffffffffffffffffffff1614612b1c576040517f08c379a00000000000000000000000000000000000000000000000000000000081526004018080602001828103825260298152602001806139026029913960400191505060405180910390fd5b600073ffffffffffffffffffffffffffffffffffffffff168273ffffffffffffffffffffffffffffffffffffffff161415612ba2576040517f08c379a00000000000000000000000000000000000000000000000000000000081526004018080602001828103825260248152602001806137cf6024913960400191505060405180910390fd5b612bab816133a4565b612bf2600360008573ffffffffffffffffffffffffffffffffffffffff1673ffffffffffffffffffffffffffffffffffffffff168152602001908152602001600020613462565b612c39600360008473ffffffffffffffffffffffffffffffffffffffff1673ffffffffffffffffffffffffffffffffffffffff168152602001908152602001600020613485565b816001600083815260200190815260200160002060006101000a81548173ffffffffffffffffffffffffffffffffffffffff021916908373ffffffffffffffffffffffffffffffffffffffff160217905550808273ffffffffffffffffffffffffffffffffffffffff168473ffffffffffffffffffffffffffffffffffffffff167fddf252ad1be2c89b69c2b068fc378daa952ba7f163c4a11628f55a4df523b3ef60405160405180910390a4505050565b6000612d436001600560008673ffffffffffffffffffffffffffffffffffffffff1673ffffffffffffffffffffffffffffffffffffffff1681526020019081526020016000208054905061349b90919063ffffffff16565b9050600060066000848152602001908152602001600020549050818114612e30576000600560008673ffffffffffffffffffffffffffffffffffffffff1673ffffffffffffffffffffffffffffffffffffffff1681526020019081526020016000208381548110612db057fe5b9060005260206000200154905080600560008773ffffffffffffffffffffffffffffffffffffffff1673ffffffffffffffffffffffffffffffffffffffff1681526020019081526020016000208381548110612e0857fe5b9060005260206000200181905550816006600083815260200190815260200160002081905550505b600560008573ffffffffffffffffffffffffffffffffffffffff1673ffffffffffffffffffffffffffffffffffffffff168152602001908152602001600020805480919060019003612e8291906136f0565b5050505050565b600560008373ffffffffffffffffffffffffffffffffffffffff1673ffffffffffffffffffffffffffffffffffffffff168152602001908152602001600020805490506006600083815260200190815260200160002081905550600560008373ffffffffffffffffffffffffffffffffffffffff1673ffffffffffffffffffffffffffffffffffffffff1681526020019081526020016000208190806001815401808255809150509060018203906000526020600020016000909192909190915055505050565b600073ffffffffffffffffffffffffffffffffffffffff168273ffffffffffffffffffffffffffffffffffffffff161415612ff3576040517f08c379a00000000000000000000000000000000000000000000000000000000081526004018080602001828103825260208152602001807f4552433732313a206d696e7420746f20746865207a65726f206164647265737381525060200191505060405180910390fd5b612ffc816127d3565b1561306f576040517f08c379a000000000000000000000000000000000000000000000000000000000815260040180806020018281038252601c8152602001807f4552433732313a20746f6b656e20616c7265616479206d696e7465640000000081525060200191505060405180910390fd5b816001600083815260200190815260200160002060006101000a81548173ffffffffffffffffffffffffffffffffffffffff021916908373ffffffffffffffffffffffffffffffffffffffff160217905550613108600360008473ffffffffffffffffffffffffffffffffffffffff1673ffffffffffffffffffffffffffffffffffffffff168152602001908152602001600020613485565b808273ffffffffffffffffffffffffffffffffffffffff16600073ffffffffffffffffffffffffffffffffffffffff167fddf252ad1be2c89b69c2b068fc378daa952ba7f163c4a11628f55a4df523b3ef60405160405180910390a45050565b6007805490506008600083815260200190815260200160002081905550600781908060018154018082558091505090600182039060005260206000200160009091929091909150555050565b60006131d58473ffffffffffffffffffffffffffffffffffffffff166134e5565b6131e2576001905061339c565b60008473ffffffffffffffffffffffffffffffffffffffff1663150b7a02613208612845565b8887876040518563ffffffff1660e01b8152600401808573ffffffffffffffffffffffffffffffffffffffff1673ffffffffffffffffffffffffffffffffffffffff1681526020018473ffffffffffffffffffffffffffffffffffffffff1673ffffffffffffffffffffffffffffffffffffffff16815260200183815260200180602001828103825283818151815260200191508051906020019080838360005b838110156132c45780820151818401526020810190506132a9565b50505050905090810190601f1680156132f15780820380516001836020036101000a031916815260200191505b5095505050505050602060405180830381600087803b15801561331357600080fd5b505af1158015613327573d6000803e3d6000fd5b505050506040513d602081101561333d57600080fd5b8101908080519060200190929190505050905063150b7a0260e01b7bffffffffffffffffffffffffffffffffffffffffffffffffffffffff1916817bffffffffffffffffffffffffffffffffffffffffffffffffffffffff1916149150505b949350505050565b600073ffffffffffffffffffffffffffffffffffffffff166002600083815260200190815260200160002060009054906101000a900473ffffffffffffffffffffffffffffffffffffffff1673ffffffffffffffffffffffffffffffffffffffff161461345f5760006002600083815260200190815260200160002060006101000a81548173ffffffffffffffffffffffffffffffffffffffff021916908373ffffffffffffffffffffffffffffffffffffffff1602179055505b50565b61347a6001826000015461349b90919063ffffffff16565b816000018190555050565b6001816000016000828254019250508190555050565b60006134dd83836040518060400160405280601e81526020017f536166654d6174683a207375627472616374696f6e206f766572666c6f770000815250613530565b905092915050565b60008060007fc5d2460186f7233c927e7db2dcc703c0e500b653ca82273b7bfad8045d85a47060001b9050833f91506000801b82141580156135275750808214155b92505050919050565b60008383111582906135dd576040517f08c379a00000000000000000000000000000000000000000000000000000000081526004018080602001828103825283818151815260200191508051906020019080838360005b838110156135a2578082015181840152602081019050613587565b50505050905090810190601f1680156135cf5780820380516001836020036101000a031916815260200191505b509250505060405180910390fd5b5060008385039050809150509392505050565b828054600181600116156101000203166002900490600052602060002090601f016020900481019282601f1061363157803560ff191683800117855561365f565b8280016001018555821561365f579182015b8281111561365e578235825591602001919060010190613643565b5b50905061366c919061371c565b5090565b828054600181600116156101000203166002900490600052602060002090601f016020900481019282601f106136b157805160ff19168380011785556136df565b828001600101855582156136df579182015b828111156136de5782518255916020019190600101906136c3565b5b5090506136ec919061371c565b5090565b81548183558181111561371757818360005260206000209182019101613716919061371c565b5b505050565b61373e91905b8082111561373a576000816000905550600101613722565b5090565b9056fe455243373231456e756d657261626c653a206f776e657220696e646578206f7574206f6620626f756e64734552433732313a207472616e7366657220746f206e6f6e20455243373231526563656976657220696d706c656d656e746572414b41503a207365742076616c75652063616c6c6572206973206e6f74206f776e6572206e6f7220617070726f7665644552433732313a207472616e7366657220746f20746865207a65726f20616464726573734552433732313a206f70657261746f7220717565727920666f72206e6f6e6578697374656e7420746f6b656e4552433732313a20617070726f76652063616c6c6572206973206e6f74206f776e6572206e6f7220617070726f76656420666f7220616c6c4552433732313a2062616c616e636520717565727920666f7220746865207a65726f20616464726573734552433732313a206f776e657220717565727920666f72206e6f6e6578697374656e7420746f6b656e4552433732313a20617070726f76656420717565727920666f72206e6f6e6578697374656e7420746f6b656e4552433732314d657461646174613a2055524920736574206f66206e6f6e6578697374656e7420746f6b656e4552433732313a207472616e73666572206f6620746f6b656e2074686174206973206e6f74206f776e4552433732314d657461646174613a2055524920717565727920666f72206e6f6e6578697374656e7420746f6b656e414b41503a206f70657261746f7220717565727920666f72206e6f6e6578697374656e74206e6f64654552433732313a20617070726f76616c20746f2063757272656e74206f776e65724552433732313a207472616e736665722063616c6c6572206973206e6f74206f776e6572206e6f7220617070726f766564455243373231456e756d657261626c653a20676c6f62616c20696e646578206f7574206f6620626f756e6473a165627a7a72305820537be644113e745ebc93b9427b3132de68a14b83ef3b1d6396a7e98a3e83edc50029",
  "source": "// Copyright (C) 2019  Christian Felde\n// Copyright (C) 2019  Mohamed Elshami\n\n// Licensed under the Apache License, Version 2.0 (the \"License\");\n// you may not use this file except in compliance with the License.\n// You may obtain a copy of the License at\n\n// http://www.apache.org/licenses/LICENSE-2.0\n\n// Unless required by applicable law or agreed to in writing, software\n// distributed under the License is distributed on an \"AS IS\" BASIS,\n// WITHOUT WARRANTIES OR CONDITIONS OF ANY KIND, either express or implied.\n// See the License for the specific language governing permissions and\n// limitations under the License.\n\npragma solidity ^0.5.0;\n\nimport \"./IAKAP.sol\";\nimport \"@openzeppelin/contracts/token/ERC721/ERC721Full.sol\";\n\ncontract AKAP is IAKAP, ERC721Full {\n    struct Node {\n        uint parentId;\n        uint expiry;\n        uint seeAlso;\n        address seeAddress;\n        bytes nodeBody;\n    }\n\n    enum ClaimCase {RECLAIM, NEW, TRANSFER}\n    enum NodeAttribute {EXPIRY, SEE_ALSO, SEE_ADDRESS, NODE_BODY, TOKEN_URI}\n\n    event Claim(address indexed sender, uint indexed nodeId, uint indexed parentId, bytes label, ClaimCase claimCase);\n    event AttributeChanged(address indexed sender, uint indexed nodeId, NodeAttribute attribute);\n\n    mapping(uint => Node) public nodes;\n\n    constructor() ERC721Full(\"AKA Protocol Registry\", \"AKAP\") public {}\n\n    function _msgSender() internal view returns (address payable) {\n        return msg.sender;\n    }\n\n    modifier onlyExisting(uint nodeId) {\n        require(_exists(nodeId), \"AKAP: operator query for nonexistent node\");\n\n        _;\n    }\n\n    modifier onlyApproved(uint nodeId) {\n        require(_exists(nodeId) && _isApprovedOrOwner(_msgSender(), nodeId), \"AKAP: set value caller is not owner nor approved\");\n\n        _;\n    }\n\n    function hashOf(uint parentId, bytes memory label) public pure returns (uint id) {\n        require(label.length >= 1 && label.length <= 32);\n\n        bytes32 labelHash = keccak256(label);\n        bytes32 nodeId = keccak256(abi.encode(parentId, labelHash));\n\n        return uint(nodeId);\n    }\n\n    function claim(uint parentId, bytes calldata label) external returns (uint status) {\n        // Claim logic is as follows:\n\n        // Case 1:\n        // A node that does exist can be extended if the _msgSender() is the owner of nodeId.\n\n        // Case 2:\n        // A node that does not exist can be claimed if the _msgSender() is the owner of parentId.\n        // If parentId is the special case 0x0, you can consider the _msgSender() as the \"owner\" of parentId.\n\n        // Case 3:\n        // A node that does exists but is expired will be transferred to the new _msgSender(). This still\n        // assumed that the _msgSender() is the parentId owner, including special case 0x0 as above.\n\n        // Get hash/id of the node caller is claiming\n        uint nodeId = hashOf(parentId, label);\n\n        bool isParentOwner = parentId == 0x0 || _isApprovedOrOwner(_msgSender(), parentId);\n        bool nodeExists = _exists(nodeId);\n\n        if (nodeExists && _isApprovedOrOwner(_msgSender(), nodeId)) {\n            // Caller is current owner/approved, extend lease..\n            nodes[nodeId].expiry = now + 52 weeks;\n            emit Claim(_msgSender(), nodeId, parentId, label, ClaimCase.RECLAIM);\n\n            return 1;\n        } else if (!nodeExists && isParentOwner) {\n            // Node does not exist, allocate to caller..\n            _mint(_msgSender(), nodeId);\n            nodes[nodeId].parentId = parentId;\n            nodes[nodeId].expiry = now + 52 weeks;\n            emit Claim(_msgSender(), nodeId, parentId, label, ClaimCase.NEW);\n\n            return 2;\n        } else if (nodeExists && nodes[nodeId].expiry <= now && isParentOwner) {\n            // Node exists and is expired, allocate to caller and extend lease..\n            _transferFrom(ownerOf(nodeId), _msgSender(), nodeId);\n            nodes[nodeId].expiry = now + 52 weeks;\n            emit Claim(_msgSender(), nodeId, parentId, label, ClaimCase.TRANSFER);\n\n            return 3;\n        }\n\n        // No action\n        return 0;\n    }\n\n    function parentOf(uint nodeId) external view onlyExisting(nodeId) returns (uint) {\n        return nodes[nodeId].parentId;\n    }\n\n    function expiryOf(uint nodeId) external view onlyExisting(nodeId) returns (uint) {\n        return nodes[nodeId].expiry;\n    }\n\n    function seeAlso(uint nodeId) external view onlyExisting(nodeId) returns (uint) {\n        return nodes[nodeId].seeAlso;\n    }\n\n    function seeAddress(uint nodeId) external view onlyExisting(nodeId) returns (address) {\n        return nodes[nodeId].seeAddress;\n    }\n\n    function nodeBody(uint nodeId) external view onlyExisting(nodeId) returns (bytes memory) {\n        return nodes[nodeId].nodeBody;\n    }\n\n    function expireNode(uint nodeId) external onlyApproved(nodeId) {\n        nodes[nodeId].expiry = now;\n        emit AttributeChanged(_msgSender(), nodeId, NodeAttribute.EXPIRY);\n    }\n\n    function setSeeAlso(uint nodeId, uint value) external onlyApproved(nodeId) {\n        nodes[nodeId].seeAlso = value;\n        emit AttributeChanged(_msgSender(), nodeId, NodeAttribute.SEE_ALSO);\n    }\n\n    function setSeeAddress(uint nodeId, address value) external onlyApproved(nodeId) {\n        nodes[nodeId].seeAddress = value;\n        emit AttributeChanged(_msgSender(), nodeId, NodeAttribute.SEE_ADDRESS);\n    }\n\n    function setNodeBody(uint nodeId, bytes calldata value) external onlyApproved(nodeId) {\n        nodes[nodeId].nodeBody = value;\n        emit AttributeChanged(_msgSender(), nodeId, NodeAttribute.NODE_BODY);\n    }\n\n    function setTokenURI(uint nodeId, string calldata uri) external onlyApproved(nodeId) {\n        _setTokenURI(nodeId, uri);\n        emit AttributeChanged(_msgSender(), nodeId, NodeAttribute.TOKEN_URI);\n    }\n}\n",
  "sourcePath": "/Users/melshami/Projects/dapps/akap/AKAP/contracts/AKAP.sol",
  "compiler": {
    "name": "solc",
    "version": "0.5.8+commit.23d335f2.Emscripten.clang"
  },
  "schemaVersion": "3.0.16",
  "updatedAt": "2020-01-17T15:54:09.899Z",
  "devdoc": {
    "methods": {
      "approve(address,uint256)": {
        "details": "Approves another address to transfer the given token ID The zero address indicates there is no approved address. There can only be one approved address per token at a given time. Can only be called by the token owner or an approved operator.",
        "params": {
          "to": "address to be approved for the given token ID",
          "tokenId": "uint256 ID of the token to be approved"
        }
      },
      "balanceOf(address)": {
        "details": "Gets the balance of the specified address.",
        "params": {
          "owner": "address to query the balance of"
        },
        "return": "uint256 representing the amount owned by the passed address"
      },
      "getApproved(uint256)": {
        "details": "Gets the approved address for a token ID, or zero if no address set Reverts if the token ID does not exist.",
        "params": {
          "tokenId": "uint256 ID of the token to query the approval of"
        },
        "return": "address currently approved for the given token ID"
      },
      "isApprovedForAll(address,address)": {
        "details": "Tells whether an operator is approved by a given owner.",
        "params": {
          "operator": "operator address which you want to query the approval of",
          "owner": "owner address which you want to query the approval of"
        },
        "return": "bool whether the given operator is approved by the given owner"
      },
      "name()": {
        "details": "Gets the token name.",
        "return": "string representing the token name"
      },
      "ownerOf(uint256)": {
        "details": "Gets the owner of the specified token ID.",
        "params": {
          "tokenId": "uint256 ID of the token to query the owner of"
        },
        "return": "address currently marked as the owner of the given token ID"
      },
      "safeTransferFrom(address,address,uint256)": {
        "details": "Safely transfers the ownership of a given token ID to another address If the target address is a contract, it must implement {IERC721Receiver-onERC721Received}, which is called upon a safe transfer, and return the magic value `bytes4(keccak256(\"onERC721Received(address,address,uint256,bytes)\"))`; otherwise, the transfer is reverted. Requires the msg.sender to be the owner, approved, or operator",
        "params": {
          "from": "current owner of the token",
          "to": "address to receive the ownership of the given token ID",
          "tokenId": "uint256 ID of the token to be transferred"
        }
      },
      "safeTransferFrom(address,address,uint256,bytes)": {
        "details": "Safely transfers the ownership of a given token ID to another address If the target address is a contract, it must implement {IERC721Receiver-onERC721Received}, which is called upon a safe transfer, and return the magic value `bytes4(keccak256(\"onERC721Received(address,address,uint256,bytes)\"))`; otherwise, the transfer is reverted. Requires the _msgSender() to be the owner, approved, or operator",
        "params": {
          "_data": "bytes data to send along with a safe transfer check",
          "from": "current owner of the token",
          "to": "address to receive the ownership of the given token ID",
          "tokenId": "uint256 ID of the token to be transferred"
        }
      },
      "setApprovalForAll(address,bool)": {
        "details": "Sets or unsets the approval of a given operator An operator is allowed to transfer all tokens of the sender on their behalf.",
        "params": {
          "approved": "representing the status of the approval to be set",
          "to": "operator address to set the approval"
        }
      },
      "supportsInterface(bytes4)": {
        "details": "See {IERC165-supportsInterface}.     * Time complexity O(1), guaranteed to always use less than 30 000 gas."
      },
      "symbol()": {
        "details": "Gets the token symbol.",
        "return": "string representing the token symbol"
      },
      "tokenByIndex(uint256)": {
        "details": "Gets the token ID at a given index of all the tokens in this contract Reverts if the index is greater or equal to the total number of tokens.",
        "params": {
          "index": "uint256 representing the index to be accessed of the tokens list"
        },
        "return": "uint256 token ID at the given index of the tokens list"
      },
      "tokenOfOwnerByIndex(address,uint256)": {
        "details": "Gets the token ID at a given index of the tokens list of the requested owner.",
        "params": {
          "index": "uint256 representing the index to be accessed of the requested tokens list",
          "owner": "address owning the tokens list to be accessed"
        },
        "return": "uint256 token ID at the given index of the tokens list owned by the requested address"
      },
      "tokenURI(uint256)": {
        "details": "Returns an URI for a given token ID. Throws if the token ID does not exist. May return an empty string.",
        "params": {
          "tokenId": "uint256 ID of the token to query"
        }
      },
      "totalSupply()": {
        "details": "Gets the total amount of tokens stored by the contract.",
        "return": "uint256 representing the total amount of tokens"
      },
      "transferFrom(address,address,uint256)": {
        "details": "Transfers the ownership of a given token ID to another address. Usage of this method is discouraged, use {safeTransferFrom} whenever possible. Requires the msg.sender to be the owner, approved, or operator.",
        "params": {
          "from": "current owner of the token",
          "to": "address to receive the ownership of the given token ID",
          "tokenId": "uint256 ID of the token to be transferred"
        }
      }
    }
  },
  "userdoc": {
    "methods": {}
  }
}