{
  "contractName": "URLShortener",
  "abi": [
    {
      "inputs": [
        {
          "name": "akapAddress",
          "type": "address"
        },
        {
          "name": "parentNodeId",
          "type": "uint256"
        }
      ],
      "payable": false,
      "stateMutability": "nonpayable",
      "type": "constructor"
    },
    {
      "constant": false,
      "inputs": [
        {
          "name": "label",
          "type": "bytes"
        },
        {
          "name": "body",
          "type": "bytes"
        }
      ],
      "name": "claimAndSetNodeBody",
      "outputs": [
        {
          "name": "success",
          "type": "uint256"
        }
      ],
      "payable": false,
      "stateMutability": "nonpayable",
      "type": "function"
    },
    {
      "constant": true,
      "inputs": [],
      "name": "parentNodeId",
      "outputs": [
        {
          "name": "",
          "type": "uint256"
        }
      ],
      "payable": false,
      "stateMutability": "view",
      "type": "function"
    }
  ],
  "bytecode": "0x608060405234801561001057600080fd5b506040516040806105f48339810180604052604081101561003057600080fd5b81019080805190602001909291908051906020019092919050505081600160006101000a81548173ffffffffffffffffffffffffffffffffffffffff021916908373ffffffffffffffffffffffffffffffffffffffff160217905550806000819055505050610550806100a46000396000f3fe608060405234801561001057600080fd5b50600436106100365760003560e01c806302d3f5851461003b578063501fe2bf14610059575b600080fd5b61004361013b565b6040518082815260200191505060405180910390f35b6101256004803603604081101561006f57600080fd5b810190808035906020019064010000000081111561008c57600080fd5b82018360208201111561009e57600080fd5b803590602001918460018302840111640100000000831117156100c057600080fd5b9091929391929390803590602001906401000000008111156100e157600080fd5b8201836020820111156100f357600080fd5b8035906020019184600183028401116401000000008311171561011557600080fd5b9091929391929390505050610144565b6040518082815260200191505060405180910390f35b60008054905090565b600080600160009054906101000a900473ffffffffffffffffffffffffffffffffffffffff16905060008173ffffffffffffffffffffffffffffffffffffffff166338926b6d61019261013b565b89896040518463ffffffff1660e01b815260040180848152602001806020018281038252848482818152602001925080828437600081840152601f19601f820116905080830192505050945050505050602060405180830381600087803b1580156101fc57600080fd5b505af1158015610210573d6000803e3d6000fd5b505050506040513d602081101561022657600080fd5b81019080805190602001909291905050509050600081146105155760008273ffffffffffffffffffffffffffffffffffffffff1663e741cc4e61026761013b565b8a8a6040518463ffffffff1660e01b815260040180848152602001806020018281038252848482818152602001925080828437600081840152601f19601f82011690508083019250505094505050505060206040518083038186803b1580156102cf57600080fd5b505afa1580156102e3573d6000803e3d6000fd5b505050506040513d60208110156102f957600080fd5b810190808051906020019092919050505090508273ffffffffffffffffffffffffffffffffffffffff1663b06901248288886040518463ffffffff1660e01b815260040180848152602001806020018281038252848482818152602001925080828437600081840152601f19601f820116905080830192505050945050505050600060405180830381600087803b15801561039357600080fd5b505af11580156103a7573d6000803e3d6000fd5b505050508273ffffffffffffffffffffffffffffffffffffffff166323b872dd8473ffffffffffffffffffffffffffffffffffffffff16636352211e846040518263ffffffff1660e01b81526004018082815260200191505060206040518083038186803b15801561041857600080fd5b505afa15801561042c573d6000803e3d6000fd5b505050506040513d602081101561044257600080fd5b810190808051906020019092919050505033846040518463ffffffff1660e01b8152600401808473ffffffffffffffffffffffffffffffffffffffff1673ffffffffffffffffffffffffffffffffffffffff1681526020018373ffffffffffffffffffffffffffffffffffffffff1673ffffffffffffffffffffffffffffffffffffffff1681526020018281526020019350505050600060405180830381600087803b1580156104f157600080fd5b505af1158015610505573d6000803e3d6000fd5b505050506001935050505061051c565b6000925050505b94935050505056fea165627a7a7230582036aad0a5c87f73e9a2dbeeb5249aa2e89f0a6804cb8382b96f6f041f1d6b86f70029",
  "source": "pragma solidity ^0.5.0;\n\nimport \"../../AKAP/contracts/AKAP.sol\";\n\ncontract URLShortener {\n\n    uint private _parentNodeId;\n    address private _akapAddress;\n\n    constructor(address akapAddress, uint parentNodeId) public {\n        _akapAddress = akapAddress;\n        _parentNodeId = parentNodeId;\n    }\n\n    /**\n    * @dev claims a child node and sets the node body. See 'AKAP.claim' and 'AKAP.setNodeBody'.\n    *\n    * The new child node will transferred to the sender\n    *\n    * returns 1 if completed successfully otherwise 0\n    */\n    function claimAndSetNodeBody(bytes calldata label, bytes calldata body) external returns (uint success) {\n        AKAP akap = AKAP(_akapAddress);\n        uint status = akap.claim(parentNodeId(), label);\n\n        if (status != 0) {\n            uint nodeId = akap.hashOf(parentNodeId(), label);\n            akap.setNodeBody(nodeId, body);\n            akap.transferFrom(akap.ownerOf(nodeId), msg.sender, nodeId);\n            return 1;\n        }\n\n        return (0);\n    }\n\n    function parentNodeId() public view returns (uint) {\n        return _parentNodeId;\n    }\n\n}",
  "sourcePath": "/Users/melshami/Projects/dapps/akap/AKAP-url-shortener-contracts/contracts/URLShortener.sol",
  "compiler": {
    "name": "solc",
    "version": "0.5.8+commit.23d335f2.Emscripten.clang"
  },
  "schemaVersion": "3.0.16",
  "updatedAt": "2020-01-17T15:54:09.903Z",
  "devdoc": {
    "methods": {
      "claimAndSetNodeBody(bytes,bytes)": {
        "details": "claims a child node and sets the node body. See 'AKAP.claim' and 'AKAP.setNodeBody'.    * The new child node will transferred to the sender    * returns 1 if completed successfully otherwise 0"
      }
    }
  },
  "userdoc": {
    "methods": {}
  }
}