{
  "contractName": "URLShortener",
  "abi": [
    {
      "inputs": [
        {
          "name": "akapAddress",
          "type": "address"
        },
        {
          "name": "domain",
          "type": "bytes"
        },
        {
          "name": "tokenURI",
          "type": "string"
        }
      ],
      "payable": false,
      "stateMutability": "nonpayable",
      "type": "constructor"
    },
    {
      "constant": false,
      "inputs": [
        {
          "name": "label",
          "type": "bytes"
        },
        {
          "name": "body",
          "type": "bytes"
        }
      ],
      "name": "claimAndSetNodeBody",
      "outputs": [
        {
          "name": "success",
          "type": "uint256"
        }
      ],
      "payable": false,
      "stateMutability": "nonpayable",
      "type": "function"
    },
    {
      "constant": false,
      "inputs": [],
      "name": "reclaim",
      "outputs": [
        {
          "name": "status",
          "type": "uint256"
        }
      ],
      "payable": false,
      "stateMutability": "nonpayable",
      "type": "function"
    },
    {
      "constant": true,
      "inputs": [],
      "name": "parentNodeId",
      "outputs": [
        {
          "name": "",
          "type": "uint256"
        }
      ],
      "payable": false,
      "stateMutability": "view",
      "type": "function"
    },
    {
      "constant": true,
      "inputs": [],
      "name": "getDomain",
      "outputs": [
        {
          "name": "",
          "type": "bytes"
        }
      ],
      "payable": false,
      "stateMutability": "view",
      "type": "function"
    }
  ],
  "bytecode": "0x60806040523480156200001157600080fd5b5060405162000be938038062000be9833981018060405260608110156200003757600080fd5b8151602083018051919392830192916401000000008111156200005957600080fd5b820160208101848111156200006d57600080fd5b81516401000000008111828201871017156200008857600080fd5b50509291906020018051640100000000811115620000a557600080fd5b82016020810184811115620000b957600080fd5b8151640100000000811182820187101715620000d457600080fd5b5050600180546001600160a01b0319166001600160a01b03881617905584519093506200010b9250600291506020850190620004b4565b5060018054604080517fe741cc4e0000000000000000000000000000000000000000000000000000000081526000600482018181526024830193845260028054600019978116156101000297909701909616869004604484018190526001600160a01b0390951695869563e741cc4e9593949193916064019084908015620001d75780601f10620001ab57610100808354040283529160200191620001d7565b820191906000526020600020905b815481529060010190602001808311620001b957829003601f168201915b5050935050505060206040518083038186803b158015620001f757600080fd5b505afa1580156200020c573d6000803e3d6000fd5b505050506040513d60208110156200022357600080fd5b50516000908155604080517f38926b6d0000000000000000000000000000000000000000000000000000000081526004810183815260248201928352600280546000196101006001831615020116819004604484018190526001600160a01b038716956338926b6d959094929392909160649091019084908015620002ec5780601f10620002c057610100808354040283529160200191620002ec565b820191906000526020600020905b815481529060010190602001808311620002ce57829003601f168201915b50509350505050602060405180830381600087803b1580156200030e57600080fd5b505af115801562000323573d6000803e3d6000fd5b505050506040513d60208110156200033a57600080fd5b505060008054604080517f162094c400000000000000000000000000000000000000000000000000000000815260048101838152602482019283528651604483015286516001600160a01b0387169563162094c49594899490926064909101916020860191908190849084905b83811015620003c1578181015183820152602001620003a7565b50505050905090810190601f168015620003ef5780820380516001836020036101000a031916815260200191505b509350505050600060405180830381600087803b1580156200041057600080fd5b505af115801562000425573d6000803e3d6000fd5b505060008054604080517f095ea7b30000000000000000000000000000000000000000000000000000000081523360048201526024810192909252516001600160a01b038616945063095ea7b393506044808301939282900301818387803b1580156200049157600080fd5b505af1158015620004a6573d6000803e3d6000fd5b505050505050505062000559565b828054600181600116156101000203166002900490600052602060002090601f016020900481019282601f10620004f757805160ff191683800117855562000527565b8280016001018555821562000527579182015b82811115620005275782518255916020019190600101906200050a565b506200053592915062000539565b5090565b6200055691905b8082111562000535576000815560010162000540565b90565b61068080620005696000396000f3fe608060405234801561001057600080fd5b506004361061004c5760003560e01c806302d3f58514610051578063501fe2bf1461006b57806380e9071b1461012d578063b68d180914610135575b600080fd5b6100596101b2565b60408051918252519081900360200190f35b6100596004803603604081101561008157600080fd5b81019060208101813564010000000081111561009c57600080fd5b8201836020820111156100ae57600080fd5b803590602001918460018302840111640100000000831117156100d057600080fd5b9193909290916020810190356401000000008111156100ee57600080fd5b82018360208201111561010057600080fd5b8035906020019184600183028401116401000000008311171561012257600080fd5b5090925090506101b8565b6100596104b9565b61013d6105c1565b6040805160208082528351818301528351919283929083019185019080838360005b8381101561017757818101518382015260200161015f565b50505050905090810190601f1680156101a45780820380516001836020036101000a031916815260200191505b509250505060405180910390f35b60005490565b6001546000906001600160a01b031681816338926b6d6101d66101b2565b6040805163ffffffff841660e01b81526004810183815260248201928352604482018c90528c928c92606401848480828437600081840152601f19601f820116905080830192505050945050505050602060405180830381600087803b15801561023f57600080fd5b505af1158015610253573d6000803e3d6000fd5b505050506040513d602081101561026957600080fd5b5051905080156104aa576000826001600160a01b031663e741cc4e61028c6101b2565b6040805163ffffffff841660e01b81526004810183815260248201928352604482018d90528d928d92606401848480828437600083820152604051601f909101601f1916909201965060209550909350505081840390508186803b1580156102f357600080fd5b505afa158015610307573d6000803e3d6000fd5b505050506040513d602081101561031d57600080fd5b505160408051600160e21b632c1a40490281526004810183815260248201928352604482018990529293506001600160a01b0386169263b06901249285928b928b929091606401848480828437600081840152601f19601f820116905080830192505050945050505050600060405180830381600087803b1580156103a157600080fd5b505af11580156103b5573d6000803e3d6000fd5b50505050826001600160a01b03166323b872dd846001600160a01b0316636352211e846040518263ffffffff1660e01b81526004018082815260200191505060206040518083038186803b15801561040c57600080fd5b505afa158015610420573d6000803e3d6000fd5b505050506040513d602081101561043657600080fd5b50516040805163ffffffff841660e01b81526001600160a01b0390921660048301523360248301526044820185905251606480830192600092919082900301818387803b15801561048657600080fd5b505af115801561049a573d6000803e3d6000fd5b50505050600193505050506104b1565b6000925050505b949350505050565b6001805460408051600160e01b6338926b6d02815260006004820181815260248301938452600280546000199781161561010002979097019096168690046044840181905291956001600160a01b039095169485946338926b6d9488949293926064909101908490801561056e5780601f106105435761010080835404028352916020019161056e565b820191906000526020600020905b81548152906001019060200180831161055157829003601f168201915b50509350505050602060405180830381600087803b15801561058f57600080fd5b505af11580156105a3573d6000803e3d6000fd5b505050506040513d60208110156105b957600080fd5b505191505090565b60028054604080516020601f600019610100600187161502019094168590049384018190048102820181019092528281526060939092909183018282801561064a5780601f1061061f5761010080835404028352916020019161064a565b820191906000526020600020905b81548152906001019060200180831161062d57829003601f168201915b505050505090509056fea165627a7a7230582080bac07a7b56fe4e7749c8289c2a94d0a72447ecaef18cfecf5cc4e8d6924d220029",
  "source": "pragma solidity ^0.5.0;\n\nimport \"../../AKAP/contracts/IAKAP.sol\";\n\ncontract URLShortener {\n\n    uint private _parentNodeId;\n    address private _akapAddress;\n    bytes private _domain;\n\n    constructor(address akapAddress, bytes memory domain, string memory tokenURI) public {\n        _akapAddress = akapAddress;\n        _domain      = domain;\n\n        IAKAP akap = IAKAP(_akapAddress);\n        _parentNodeId = akap.hashOf(0x0, _domain);\n\n        akap.claim(0x0, _domain);\n        akap.setTokenURI(_parentNodeId, tokenURI);\n        akap.approve(msg.sender, _parentNodeId);\n    }\n\n    /**\n    * @dev claims a child node and sets the node body. See 'AKAP.claim' and 'AKAP.setNodeBody'.\n    *\n    * The new child node will transferred to the sender\n    *\n    * returns 1 if completed successfully otherwise 0\n    */\n    function claimAndSetNodeBody(bytes calldata label, bytes calldata body) external returns (uint success) {\n        IAKAP akap = IAKAP(_akapAddress);\n        uint status = akap.claim(parentNodeId(), label);\n\n        if (status != 0) {\n            uint nodeId = akap.hashOf(parentNodeId(), label);\n            akap.setNodeBody(nodeId, body);\n            akap.transferFrom(akap.ownerOf(nodeId), msg.sender, nodeId);\n            return 1;\n        }\n\n        return 0;\n    }\n\n    /**\n    * @dev extends the claim on the parent re-issuing 'AKAP.claim' function\n    *\n    * See 'AKAP.claim' 'case 1'\n    **/\n    function reclaim() external returns (uint status){\n       IAKAP akap = IAKAP(_akapAddress);\n       return akap.claim(0x0, _domain);\n    }\n\n    /**\n    * returns the parent 'root' Id which is the hash of 0x0 and 'bytes' value of domain\n    **/\n    function parentNodeId() public view returns (uint) {\n        return _parentNodeId;\n    }\n\n    /**\n    * returns the domain of this URLShortener instance\n    **/\n    function getDomain() public view returns (bytes memory) {\n        return _domain;\n    }\n\n}",
  "sourcePath": "/Users/melshami/Projects/dapps/akap/AKAP-url-shortener-contracts/contracts/URLShortener.sol",
  "compiler": {
    "name": "solc",
    "version": "0.5.8+commit.23d335f2.Emscripten.clang"
  },
  "schemaVersion": "3.0.16",
  "updatedAt": "2020-01-21T23:48:52.158Z",
  "devdoc": {
    "methods": {
      "claimAndSetNodeBody(bytes,bytes)": {
        "details": "claims a child node and sets the node body. See 'AKAP.claim' and 'AKAP.setNodeBody'.    * The new child node will transferred to the sender    * returns 1 if completed successfully otherwise 0"
      },
      "reclaim()": {
        "details": "extends the claim on the parent re-issuing 'AKAP.claim' function    * See 'AKAP.claim' 'case 1'*"
      }
    }
  },
  "userdoc": {
    "methods": {
      "getDomain()": {
        "notice": "returns the domain of this URLShortener instance*"
      },
      "parentNodeId()": {
        "notice": "returns the parent 'root' Id which is the hash of 0x0 and 'bytes' value of domain*"
      }
    }
  }
}